:0908A200AA01000000000166BB80
:10080B00E4F53DF53E7F807E25FDFC120897E4F56F
:10081B003DF53E74A2253EF5827408353DF583E423
:10082B0093FF1208B3053EE53E7002053DC39409E4
:08083B00E53D940040DD80FE64
:0C087F00EF4E6007EF1F70F81E80F5229E
:10086800AD07AC06ED4C600E7F707E0012087FED80
:070878001D70F11C80EE224F
:1006D000EF131313541FFE53070714602D14604AC1
:1006E00014606724036003020769ED600E7401A8BB
:1006F00007088002C333D8FC4280227401A807088F
:100700008002C333D8FCF4528022ED600E7401A83D
:1007100007088002C333D8FC4290227401A807085E
:100720008002C333D8FCF4529022ED600E7401A80D
:1007300007088002C333D8FC42A0227401A807082E
:100740008002C333D8FCF452A022ED600E7401A8DD
:1007500007088002C333D8FC42B0227401A80708FE
:090760008002C333D8FCF452B04E
:01076900226D
:02062900AD071B
:10062B00E4FCED131313541FFF53050714602E1432
:10063B00604C14606A240360030206CD74017E00D3
:10064B00A805088005C333CE33CED8F9FFAB80EFB6
:10065B005B60047F0180027F00AC07806574017EC4
:10066B0000A805088005C333CE33CED8F9FFAB9075
:10067B00EF5B60047F0180027F00AC078044740154
:10068B007E00A805088005C333CE33CED8F9FFAB67
:10069B00A0EF5B60047F0180027F00AC078023AF7B
:1006AB000574017E00A807088005C333CE33CED86E
:1006BB00F9FFADB0EDFBEF5B60047F0180027F00C3
:0406CB00AC07AF04C5
:0106CF002208
:0B089700438920759850D28E02076A3A
:08076A008F428E418D408C3F4F
:10077200E47F607E09FDFCAB42AA41A940A83FC3C9
:1007820012042540367F007EC27D017C00A83FD343
:100792001204255026E47F807E01FDFCA83F120250
:1007A200FAA804A905AA06AB077F007EC07DA87C33
:1007B200001203851204178F43800375435D85433E
:0107C2008DA9
:0107C3002213
:0808AB003098FDC298AF9922BC
:0808B3008F993099FDC29922D2
:100843008B448A458946AB44AA45A9461202946063
:10085300130546E5467002054514F9120294FF128A
:0508630008B380E22251
:0607C4008B478A488949B9
:1007CA00E4FE1208ABAD071208B3ED640D6003BD79
:1007DA000A11AB47AA48A9498E82758300E412021E
:1007EA00AD801BBD0806EE60031E80D6AB47AA4843
:1007FA00A9498E82758300ED1202AD0E80C4AF0640
:01080A0022CB
:0204F7008F2C48
:1004F900E4F532E52C6402704FE5317003020628F9
:1005090014FF74017E00A807088005C333CE33CEDB
:10051900D8F9FFEE3395E0FDFCEF5530FFEE552F8E
:10052900FEED552EFDEC552DFCE4FBFAF9F8C3124E
:10053900042560047F0180027F008F32E532243078
:10054900FF1208B3153180B1E4FFFEFDFCAB30AA00
:100559002FA92EA82DC3120425701FF532E532C329
:1005690095314003020628E532C3940A4003020686
:10057900287F301208B3053280E3E4F532E532C34F
:100589009531507CE4FFFEFDFCAB30AA2FA92EA8C3
:100599002DC31204256051AF2CAB07E4FAF9F8AF6B
:1005A90030AE2FAD2EAC2D120385A804A905AA06DD
:1005B900AB07AF2CE4FCFDFE1202FAC3E5309FFF46
:1005C90074332532F8A607AF30AE2FAD2EAC2DC04F
:1005D90007AF2CAB07E4FAF9F8D0071203858F307F
:1005E9008E2F8D2E8C2D8013E531F46013E531D3D8
:1005F900940A500C74332532F8E4F6053202058664
:10060900E532601B2432F8E6FFD394094006EF2453
:0F06190037FF8004E62430FF1208B3153280E16A
:0106280022AF
:060003008B088A09890A3E
:10000900751D00751E00751F0B8B1A8A1B891CAB89
:100019001AAA1BA91C120294FF700302028AF52A6C
:100029006425600302027704251CF51CE4351BF5E1
:100039001BFAA91C120294F52AC3648094B04043A8
:10004900D3E52A648094B9503AE4F52BC3E52A64D0
:100059008094B04031D3E52A648094B95028E52AC8
:1000690024D0FFE52B75F00AA42FF52B7401251C6C
:10007900F51CE4351BF51BAB1AFAA91C120294F501
:100089002A80C9752BFFE52A1204760273250222FC
:100099004200BF43010E44025B5301705501C6582B
:1000A90001F06200BF6300D664025B73014B750106
:1000B9009B780000027CAB1D051FE51FAA1E70027C
:1000C900051E14F9120294F52AFF020279AB1DE507
:1000D9001FF92402F51FE51EFA3400F51E1202CF9E
:1000E900FDACF0C3EC64809480500CC3E49DFDE446
:1000F9009CFC7F2D1208B3AE04AF05EE3395E08F5B
:10010900308E2F805CAB1DE51FF92404F51FE51E19
:10011900FA3400F51E1204368F238E228D218C208D
:10012900EC3350101204178F238E228D218C207FDF
:100139002D1208B385233085222F85212E85202D68
:100149008048AB1DE51FF92402F51FE51EFA3400AE
:10015900F51E1202CFF52585F024FFE48F308524A2
:100169002FF52EF52D8023AB1DE51FF92404F51F6E
:10017900E51EFA3400F51E1204368F298E288D27C4
:100189008C268F308E2F8D2E8C2D852B317F0A0258
:100199000256AB1DE51FF92402F51FE51EFA3400CE
:1001A900F51E1202CFF52585F024FFE48F30852452
:1001B9002FF52EF52D852B317F10020256AB1DE54B
:1001C9001FF92404F51FE51EFA3400F51E12043642
:1001D9008F298E288D278C268F308E2F8D2E8C2D52
:1001E900852B317F108066AB1DE51FF92402F51FB1
:1001F900E51EFA3400F51E1202CFF52585F024E537
:100209002BB4FF03752B10E485253085242FF52E9B
:10021900F52D852B317F028034AB1DE51FF92404B0
:10022900F51FE51EFA3400F51E1204368F298E28B3
:100239008D278C26E52BB4FF03752B208529308566
:10024900282F85272E85262D852B317F021204F72D
:100259008021AB1DE51FF92403F51FE51EFA3400C3
:10026900F51E12045612084380097F258002AF2A21
:100279001208B37401251CF51CE4351BF51B02009B
:0A02890018751D00751E00751F009A
:010293002248
:0300000002088B68
:0C088B00787FE4F6D8FD75814902080B67
:10029400BB010689828A83E0225002E722BBFE0268
:0902A400E32289828A83E493229B
:1002AD00F8BB010DE58229F582E5833AF583E8F087
:1002BD00225006E92582C8F622BBFE05E92582C833
:0202CD00F2221B
:1002CF00BB010A89828A83E0F5F0A3E022500687FA
:1002DF00F009E71922BBFE07E3F5F009E3192289BC
:0B02EF00828A83E493F5F074019322EF
:1002FA00E88FF0A4CC8BF0A42CFCE98EF0A42CFCA3
:10030A008AF0EDA42CFCEA8EF0A4CDA8F08BF0A420
:10031A002DCC3825F0FDE98FF0A42CCD35F0FCEB7F
:10032A008EF0A4FEA9F0EB8FF0A4CFC5F02ECD3944
:0F033A00FEE43CFCEAA42DCE35F0FDE43CFC22B1
:1003490075F008758200EF2FFFEE33FECD33CDCC6B
:1003590033CCC58233C5829BED9AEC99E5829840EE
:100369000CF582EE9BFEED9AFDEC99FC0FD5F0D6CB
:10037900E4CEFBE4CDFAE4CCF9A88222B800C1B9F5
:100389000059BA002DEC8BF084CFCECDFCE5F0CB33
:10039900F97818EF2FFFEE33FEED33FDEC33FCEB6C
:1003A90033FB10D703994004EB99FB0FD8E5E4F927
:1003B900FA227818EF2FFFEE33FEED33FDEC33FC14
:1003C900C933C910D7059BE99A4007EC9BFCE99A08
:1003D900F90FD8E0E4C9FAE4CCFB2275F010EF2F4D
:1003E900FFEE33FEED33FDCC33CCC833C810D7074D
:1003F9009BEC9AE899400AED9BFDEC9AFCE899F888
:0E0409000FD5F0DAE4CDFBE4CCFAE4C8F9221A
:0E041700C3E49FFFE49EFEE49DFDE49CFC22F6
:10042500EB9FF5F0EA9E42F0E99D42F0E89C45F02D
:0104350022A4
:10043600BB010789828A830204A85005E9F80204F1
:100446009CBBFE05E9F80204B489828A830204C0D3
:10045600BB010789828A830204D95005E9F80204A0
:10046600D0BBFE05E9F80204E289828A830204EB26
:10047600D083D082F8E4937012740193700DA3A315
:1004860093F8740193F5828883E473740293686029
:06049600EFA3A3A380DF29
:0C049C00E6FC08E6FD08E6FE08E6FF228C
:0C04A800E0FCA3E0FDA3E0FEA3E0FF22C7
:0C04B400E2FC08E2FD08E2FE08E2FF2284
:1004C000E493FC740193FD740293FE740393FF2282
:0904D000E6FB08E6FA08E6F92251
:0904D900E0FBA3E0FAA3E0F92224
:0904E200E2FB08E2FA08E2F9224B
:0C04EB00E493FB740193FA740293F9226D
:00000001FF
