:100739006865783A307825327820202062696E3AE7
:100749002538622020206465633A2533640A0D0048
:10068300E4F508F5097F807E25FDFC1207887BFFD2
:100693007A07793985080D85090E85080F850910B4
:1006A3008508118509121200037F647E0012075921
:1006B3000509E50970020508D394FFE508648094F1
:0A06C3008040CBE4F508F50980C47F
:0B078800438920759850D28E0206298C
:080629008F0D8E0C8D0B8C0A65
:10063100E47F607E09FDFCAB0DAA0CA90BA80AC3DF
:1006410012042540367F007EC27D017C00A80AD3BA
:100651001204255026E47F807E01FDFCA80A1202C7
:10066100FAA804A905AA06AB077F007EC07DA87C75
:10067100001203851204178F0E8003750E5D850E1F
:010681008DEB
:010682002255
:080793003098FDC298AF9922D5
:08079B008F993099FDC29922EB
:100714008B2E8A2F8930AB2EAA2FA9301202946017
:10072400130530E5307002052F14F9120294FF12FC
:05073400079B80E2229A
:0606CD008B3F8A408941C9
:1006D300E4FE120793AD0712079BED640D6003BDA3
:1006E3000A11AB3FAA40A9418E82758300E412022E
:1006F300AD801BBD0806EE60031E80D6AB3FAA404B
:10070300A9418E82758300ED1202AD0E80C4AF063F
:0107130022C3
:0204F7008F2E46
:1004F900E4F534E52E6402704FE5337003020628F3
:1005090014FF74017E00A807088005C333CE33CEDB
:10051900D8F9FFEE3395E0FDFCEF5532FFEE55318A
:10052900FEED5530FDEC552FFCE4FBFAF9F8C3124A
:10053900042560047F0180027F008F34E534243074
:10054900FF12079B153380B1E4FFFEFDFCAB32AA15
:1005590031A930A82FC3120425701FF534E534C31F
:1005690095334003020628E534C3940A4003020682
:10057900287F3012079B053480E3E4F534E534C362
:100589009533507CE4FFFEFDFCAB32AA31A930A8BB
:100599002FC31204256051AF2EAB07E4FAF9F8AF67
:1005A90032AE31AD30AC2F120385A804A905AA06D5
:1005B900AB07AF2EE4FCFDFE1202FAC3E5329FFF42
:1005C90074352534F8A607AF32AE31AD30AC2FC043
:1005D90007AF2EAB07E4FAF9F8D0071203858F327B
:1005E9008E318D308C2F8013E533F46013E533D3CE
:1005F900940A500C74352534F8E4F605340205865E
:10060900E534601B2434F8E6FFD394094006EF244F
:0F06190037FF8004E62430FF12079B153480E181
:0106280022AF
:060003008B0A8A0B890C38
:10000900751F0075200075210D8B1C8A1D891EAB7B
:100019001CAA1DA91E120294FF700302028AF52C64
:100029006425600302027704251EF51EE4351DF5DB
:100039001DFAA91E120294F52CC3648094B04043A2
:10004900D3E52C648094B9503AE4F52DC3E52C64CA
:100059008094B04031D3E52C648094B95028E52CC4
:1000690024D0FFE52D75F00AA42FF52D7401251E66
:10007900F51EE4351DF51DAB1CFAA91E120294F5F7
:100089002C80C9752DFFE52C1204760273250222F6
:100099004200BF43010E44025B5301705501C6582B
:1000A90001F06200BF6300D664025B73014B750106
:1000B9009B780000027CAB1F0521E521AA20700274
:1000C900052014F9120294F52CFF020279AB1FE501
:1000D90021F92402F521E520FA3400F5201202CF96
:1000E900FDACF0C3EC64809480500CC3E49DFDE446
:1000F9009CFC7F2D12079BAE04AF05EE3395E08F74
:10010900328E31805CAB1FE521F92404F521E5200D
:10011900FA3400F5201204368F258E248D238C2283
:10012900EC3350101204178F258E248D238C227FD7
:100139002D12079B85253285243185233085222F71
:100149008048AB1FE521F92402F521E520FA3400A6
:10015900F5201202CFF52785F026FFE48F32852698
:1001690031F530F52F8023AB1FE521F92404F52162
:10017900E520FA3400F5201204368F2B8E2A8D29BA
:100189008C288F328E318D308C2F852D337F0A024A
:100199000256AB1FE521F92402F521E520FA3400C6
:1001A900F5201202CFF52785F026FFE48F32852648
:1001B90031F530F52F852D337F10020256AB1FE53F
:1001C90021F92404F521E520FA3400F5201204363A
:1001D9008F2B8E2A8D298C288F328E318D308C2F42
:1001E900852D337F108066AB1FE521F92402F521A7
:1001F900E520FA3400F5201202CFF52785F026E52F
:100209002DB4FF03752D10E4852732852631F5308D
:10021900F52F852D337F028034AB1FE521F92404A6
:10022900F521E520FA3400F5201204368F2B8E2AA9
:100239008D298C28E52DB4FF03752D20852B32855A
:100249002A3185293085282F852D337F021204F71D
:100259008021AB1FE521F92403F521E520FA3400BB
:10026900F52012045612071480097F258002AF2C4D
:1002790012079B7401251EF51EE4351DF51D0200AC
:0A02890018751F0075200075210094
:010293002248
:0C077000EF4E6007EF1F70F81E80F522AE
:10075900AD07AC06ED4C600E7F707E00120770EDA0
:070769001D70F11C80EE225F
:0300000002077C78
:0C077C00787FE4F6D8FD75814102068309
:10029400BB010689828A83E0225002E722BBFE0268
:0902A400E32289828A83E493229B
:1002AD00F8BB010DE58229F582E5833AF583E8F087
:1002BD00225006E92582C8F622BBFE05E92582C833
:0202CD00F2221B
:1002CF00BB010A89828A83E0F5F0A3E022500687FA
:1002DF00F009E71922BBFE07E3F5F009E3192289BC
:0B02EF00828A83E493F5F074019322EF
:1002FA00E88FF0A4CC8BF0A42CFCE98EF0A42CFCA3
:10030A008AF0EDA42CFCEA8EF0A4CDA8F08BF0A420
:10031A002DCC3825F0FDE98FF0A42CCD35F0FCEB7F
:10032A008EF0A4FEA9F0EB8FF0A4CFC5F02ECD3944
:0F033A00FEE43CFCEAA42DCE35F0FDE43CFC22B1
:1003490075F008758200EF2FFFEE33FECD33CDCC6B
:1003590033CCC58233C5829BED9AEC99E5829840EE
:100369000CF582EE9BFEED9AFDEC99FC0FD5F0D6CB
:10037900E4CEFBE4CDFAE4CCF9A88222B800C1B9F5
:100389000059BA002DEC8BF084CFCECDFCE5F0CB33
:10039900F97818EF2FFFEE33FEED33FDEC33FCEB6C
:1003A90033FB10D703994004EB99FB0FD8E5E4F927
:1003B900FA227818EF2FFFEE33FEED33FDEC33FC14
:1003C900C933C910D7059BE99A4007EC9BFCE99A08
:1003D900F90FD8E0E4C9FAE4CCFB2275F010EF2F4D
:1003E900FFEE33FEED33FDCC33CCC833C810D7074D
:1003F9009BEC9AE899400AED9BFDEC9AFCE899F888
:0E0409000FD5F0DAE4CDFBE4CCFAE4C8F9221A
:0E041700C3E49FFFE49EFEE49DFDE49CFC22F6
:10042500EB9FF5F0EA9E42F0E99D42F0E89C45F02D
:0104350022A4
:10043600BB010789828A830204A85005E9F80204F1
:100446009CBBFE05E9F80204B489828A830204C0D3
:10045600BB010789828A830204D95005E9F80204A0
:10046600D0BBFE05E9F80204E289828A830204EB26
:10047600D083D082F8E4937012740193700DA3A315
:1004860093F8740193F5828883E473740293686029
:06049600EFA3A3A380DF29
:0C049C00E6FC08E6FD08E6FE08E6FF228C
:0C04A800E0FCA3E0FDA3E0FEA3E0FF22C7
:0C04B400E2FC08E2FD08E2FE08E2FF2284
:1004C000E493FC740193FD740293FE740393FF2282
:0904D000E6FB08E6FA08E6F92251
:0904D900E0FBA3E0FAA3E0F92224
:0904E200E2FB08E2FA08E2F9224B
:0C04EB00E493FB740193FA740293F9226D
:00000001FF
